S01000005653455F454355322E73726563B8
S11300000C942A000C9447000C9447000C9447006D
S11300100C9447000C9447000C9447000C94470040
S11300200C9447000C9459010C9447000C9447001D
S11300300C94D1010C9447000C9447000C94470095
S11300400C9447000C9447000C9447000C94470010
S11300500C94470011241FBECFE5D8E0DEBFCDBF0E
S113006010E0A0E6B0E0E0EBFCE002C005900D92E9
S1130070A83DB107D9F721E0A8EDB0E001C01D9279
S1130080A131B207E1F70E94AF000C9456060C941C
S113009000004F3FC1F4813051F028F0823059F014
S11300A0833069F008958AB3682B6ABB089587B3D7
S11300B0682B67BB089584B3682B64BB089581B330
S11300C0682B61BB089541111BC0813059F028F0A1
S11300D0823069F0833081F008958AB36095682393
S11300E06ABB089587B36095682367BB089584B39A
S11300F06095682364BB089581B36095682361BBF0
S11301000895813051F028F0823059F0833069F03D
S113011008958BB368276BBB089588B3682768BBC1
S1130120089585B3682765BB089582B3682762BBC9
S11301300895813049F028F0823049F0833051F03D
S11301400CC089B38623089586B38623089583B3A8
S11301508623089580B38623089580E00895CF937D
S1130160DF93CDB7DEB72B970FB6F894DEBF0FBE83
S1130170CDBF80E096E9A0E0B0E088879987AA87A0
S1130180BB8786E08A8388E089831B821E821D8266
S11301901C821F82CE0101960E94DD0200E820E24B
S11301A040E062E080E40E946A026894AA24A2F813
S11301B0C12CD12CE12CF12C00E010E026EF32EC24
S11301C044E060E070E080E090E00E94AA0280E0F9
S11301D00E94E10181E00E94E101BB24B394689490
S11301E0552451F80F2EF2E66F2EF0E07F2EF02DFD
S11301F00F2EFEED8F2EF0E09F2EF02D80E00E945A
S11302000102823001F5909160009230B1F4B09215
S113021060006894AA24A2F8C12CD12CE12CF12C02
S113022000E010E026EF32EC44E060E070E080E0B3
S113023090E00E94AA020E94D20264EF71E080E082
S113024090E00E9447028B2D0E9401028230B1F699
S113025080916000813031F5509260000E94DA0292
S11302602091DB003091DC008091D9009091DA007C
S11302703F932F939F938F937F926F929F928F922E
S11302800E947E03C4010E944D031092DD0010926F
S1130290DC001092DB001092D8000FB6F894DEBF99
S11302A00FBECDBF64EF71E080E090E00E94470292
S11302B0A5CF1F920F920FB60F9211242F933F9345
S11302C04F935F936F937F938F939F93AF93BF935A
S11302D0EF93FF9360E282E00E94810080E593EC5B
S11302E00E94CF028091DD008F5F8093DD008091BA
S11302F0DD00843009F044C0209161008091D90070
S11303009091DA00820F911D9093DA008093D900C6
S11303101092DD003091D800209161008091DB00C3
S11303209091DC00329F800D911D11249093DC008C
S11303308093DB002091DB003091DC008091D900B8
S11303409091DA004091D8003F932F939F938F931D
S11303501F924F9384EA90E09F938F938EED90E0E9
S11303609F938F930E947E038EED90E00E944D0335
S11303708DB79EB70A960FB6F8949EBF0FBE8DBF79
S1130380FF91EF91BF91AF919F918F917F916F9169
S11303905F914F913F912F910F900FBE0F901F903F
S11303A018951F920F920FB60F9211248F938FB14D
S11303B080538093D8008F910F900FBE0F901F90A1
S11303C01895813061F028F0823079F0833099F00B
S11303D0089540E060E182E00E944900089540E011
S11303E064E081E00E944900089540E064E080E018
S11303F00E944900089540E068E080E00E944900BE
S11304000895813099F028F08230E9F0833041F189
S113041034C06FE070E080E090E00E94470260E149
S113042082E00E94990081112AC008956FE070E073
S113043080E090E00E94470264E081E00E9499001D
S113044081111FC008956FE070E080E090E00E9489
S1130450470264E080E00E949900811114C008956D
S11304606FE070E080E090E00E94470268E080E086
S11304700E949900811109C0089580E0089582E0E6
S1130480089582E0089582E0089582E008950F932C
S11304901F938B019C01672B682B692B81F417C078
S11304A00196823FA8E09A07D9F74F5F5F4F6F4FDD
S11304B07F4F401751076207730731F408C040E0CB
S11304C050E0BA01F0E0E0E08F2F9E2FE9CF1F91BA
S11304D00F910895FF920F931F93CF93DF93C82F2B
S11304E0D62FF42E122F1DB8803491F0803521F5CB
S11304F040E060E481E00E9449004FEF60E281E067
S11305000E9449004FEF60E881E00E94490014C056
S11305104FEF60E481E00E94490040E060E281E046
S11305200E94490040E060E881E00E94490040E008
S113053060E181E00E9449000F29102BD12BCD2BC3
S1130540CDB98FB780688FBFDF91CF911F910F9185
S1130550FF900895AF92CF92DF92EF92FF920F93A4
S11305601F931FBC1EBC862B972B9FBD8EBD409333
S113057010013DBD2CBD1BBD0ABDF9BCE8BCD7BCF8
S1130580C6BC89B7A82AA9BE8FB780688FBF1F9140
S11305900F91FF90EF90DF90CF90AF9008959DBDA5
S11305A08CBD08958EB59FB520911001822B9FBDFF
S11305B08EBD08951FBC1EBC0895CF92DF92EF92AA
S11305C0FF92CF93DF93EC019AB18881892B9E81AE
S11305D0892B8AB920B58B819D81892B806899816B
S11305E0892B9A81892B9C81892B822B80BD8F81B9
S11305F09885A985BA85880F991FAA1FBB1F880FE4
S1130600991FAA1FBB1F9C01AD01220F331F441F5A
S1130610551F220F331F441F551F0F2EC12CF4E208
S1130620DF2EF4EFEF2EF12CF02DC701B6010E945E
S11306305C03215029B98F819885A985BA85880FD3
S1130640991FAA1FBB1F880F991FAA1FBB1F9C01BC
S1130650AD01220F331F441F551F220F331F441FA8
S1130660551FC701B6010E945C03DA01C901019755
S1130670A109B109892F9A2FAB2FBB2780BD8FB752
S113068080688FBFDF91CF91FF90EF90DF90CF9084
S113069008955D9BFECF8CB90895CF93DF93EC0151
S11306A08881882331F021960E9449038991811120
S11306B0FBCFDF91CF910895A1E21A2EAA1BBB1B99
S11306C0FD010DC0AA1FBB1FEE1FFF1FA217B3071A
S11306D0E407F50720F0A21BB30BE40BF50B661F30
S11306E0771F881F991F1A9469F7609570958095F4
S11306F090959B01AC01BD01CF010895AEE0B0E03F
S1130700E4E8F3E00C942D060D891E8986E08C83C1
S11307101A8309838FEF9FE79E838D83AE01475E23
S11307205F4F6F89788DCE0101960E94A1032F81BE
S11307303885F801E20FF31F10822E96E4E00C9442
S11307404906ACE0B0E0E7EAF3E00C941F067C0154
S11307506B018A01FC0117821682838181FFBDC16E
S1130760CE0101964C01F7019381F60193FD859129
S113077093FF81916F01882309F4ABC1853239F469
S113078093FD859193FF81916F01853229F4B7011F
S113079090E00E948905E7CF512C312C20E02032D3
S11307A0A0F48B3269F030F4803259F0833269F46A
S11307B020612CC08D3239F0803339F4216026C099
S11307C02260246023C0286021C027FD27C030EDAB
S11307D0380F3A3078F426FF06C0FAE05F9E300DF9
S11307E01124532E13C08AE0389E300D1124332E69
S11307F020620CC08E3221F426FD6BC1206406C039
S11308008C3611F4206802C0883641F4F60193FD59
S1130810859193FF81916F018111C1CF982F9F7DA5
S11308209554933028F40C5F1F4FFFE3F9830DC0F8
S1130830833631F0833771F0833509F05BC022C011
S1130840F801808189830E5F1F4F44244394512C07
S1130850540115C03801F2E06F0E711CF801A0803C
S1130860B18026FF03C0652D70E002C06FEF7FEFFB
S1130870C5012C870E947E052C0183012C852F77CE
S1130880222E17C03801F2E06F0E711CF801A0800F
S1130890B18026FF03C0652D70E002C06FEF7FEFCB
S11308A0C5012C870E9473052C012C852068222EFB
S11308B0830123FC1BC0832D90E048165906B0F435
S11308C0B70180E290E00E9489053A94F4CFF501E3
S11308D027FC859127FE81915F01B70190E00E947A
S11308E0890531103A94F1E04F1A5108411451042A
S11308F071F7E5C0843611F0893639F5F80127FF20
S113090007C060817181828193810C5F1F4F08C091
S113091060817181072E000C880B990B0E5F1F4FAD
S11309202F76722E97FF09C09095809570956195EA
S11309307F4F8F4F9F4F2068722E2AE030E0A40132
S11309400E94C105A82EA81844C0853729F42F7E1B
S1130950B22E2AE030E025C0F22FF97FBF2E8F3669
S1130960C1F018F4883579F0B4C0803719F08837AD
S113097021F0AFC02F2F2061B22EB4FE0DC08B2DFD
S11309808460B82E09C024FF0AC09F2F9660B92E38
S113099006C028E030E005C020E130E002C020E1DC
S11309A032E0F801B7FE07C06081718182819381D2
S11309B00C5F1F4F06C06081718180E090E00E5F84
S11309C01F4FA4010E94C105A82EA818FB2DFF7774
S11309D07F2E76FE0BC0372D3E7FA51450F474FE97
S11309E00AC072FC08C0372D3E7E05C0BA2C372DD4
S11309F003C0BA2C01C0B52C34FF0DC0FE01EA0DB2
S1130A00F11D8081803311F4397E09C032FF06C0A4
S1130A10B394B39404C0832F867809F0B39433FD60
S1130A2013C030FF06C05A2CB31418F4530C5B18CF
S1130A30B32CB31468F4B70180E290E03C870E94C1
S1130A408905B3943C85F5CFB31410F43B1801C069
S1130A50312C34FF12C0B70180E390E03C870E9440
S1130A6089053C8532FF17C031FD03C088E790E05B
S1130A7002C088E590E0B7010CC0832F867859F056
S1130A8031FF02C08BE201C080E237FD8DE2B70185
S1130A9090E00E948905A51438F4B70180E390E042
S1130AA00E9489055A94F7CFAA94F401EA0DF11D26
S1130AB08081B70190E00E948905A110F5CF332011
S1130AC009F451CEB70180E290E00E9489053A947E
S1130AD0F6CFF7018681978102C08FEF9FEF2C96A6
S1130AE0E2E10C943B06FC0105906150704001105A
S1130AF0D8F7809590958E0F9F1F0895FC01615043
S1130B00704001900110D8F7809590958E0F9F1F2B
S1130B1008950F931F93CF93DF93FB01238121FD4E
S1130B2003C08FEF9FEF28C022FF16C04681578174
S1130B30248135814217530744F4A081B1819D017A
S1130B402F5F3F4F318320838C93268137812F5F22
S1130B503F4F3783268310C0EB01092F182F0084E1
S1130B60F185E02D0995892BE1F68E819F8101960F
S1130B709F838E83812F902FDF91CF911F910F91AF
S1130B800895FA01AA27283051F1203181F1E8941F
S1130B906F936E7F6E5F7F4F8F4F9F4FAF4FB1E06C
S1130BA03ED0B4E03CD0670F781F891F9A1FA11D67
S1130BB0680F791F8A1F911DA11D6A0F711D811D68
S1130BC0911DA11D20D009F468943F912AE0269F2D
S1130BD011243019305D3193DEF6CF010895462F8C
S1130BE04770405D4193B3E00FD0C9F7F6CF462F6D
S1130BF04F70405D4A3318F0495D31FD40524193D6
S1130C0002D0A9F7EACFB4E0A69597958795779592
S1130C106795BA95C9F700976105710508959B0119
S1130C20AC010A2E06945795479537952795BA95A2
S1130C30C9F7620F731F841F951FA01D08952F927B
S1130C403F924F925F926F927F928F929F92AF9258
S1130C50BF92CF92DF92EF92FF920F931F93CF93A5
S1130C60DF93CDB7DEB7CA1BDB0B0FB6F894DEBF3C
S1130C700FBECDBF09942A88398848885F846E8462
S1130C807D848C849B84AA84B984C884DF80EE80AC
S1130C90FD800C811B81AA81B981CE0FD11D0FB6B5
S1130CA0F894DEBF0FBECDBFED010895F894FFCFD9
S1130CB00201546F74616C2054726970204D656137
S1130CC0737572656D656E74733A202054696D6531
S1130CD03D202564205365636F6E64732C20446942
S1130CE07374616E63653D202564204D657465727F
S1130CF0730D0A004D6561737572656D656E74736D
S1130D003A202053706565643D2025642C20546985
S1130D106D653D2025642C2044697374616E6365A0
S10B0D203D2025640D0A0000CA
S9030000FC
